:020000040800F2
:1000000014080020B50300081D0400081D040008A2
:100010001D0400081D0400081D0400080000000065
:100020000000000000000000000000001D040008A7
:100030001D040008000000001D0400081D04000845
:100040001D0400081D0400081D0400081D0400080C
:100050001D0400081D0400081D0400081D040008FC
:100060001D0400081D0400081D0400081D040008EC
:100070001D0400081D0400081D0400081D040008DC
:100080001D0400081D0400081D0400081D040008CC
:100090001D0400081D0400081D0400081D040008BC
:1000A0001D0400081D0400081D0400081D040008AC
:1000B0001D0400081D0400081D0400081D0400089C
:1000C0001D0400081D0400081D0400081D0400088C
:1000D0001D0400081D0400081D0400081D0400087C
:1000E0001D0400081D0400081D0400081D0400086C
:1000F0001D0400081D0400081D0400081D0400085C
:100100001D0400081D040008410400081D04000827
:100110001D0400081D0400081D0400081D0400083B
:100120001D0400081D0400081D0400081D0400082B
:100130001D0400081D0400081D0400081D0400081B
:100140001D0400081D0400081D0400081D0400080B
:100150001D0400081D0400081D0400081D040008FB
:100160001D0400081D0400081D0400081D040008EB
:100170001D0400081D0400081D0400081D040008DB
:100180001D0400081D04000880B58AB000AF786027
:1001900039604FF000037B624FF000033B624FF089
:1001A0000003FB614FF00003BB617B681B8A9BB2BD
:1001B0007B627B6A23F440537B623B68DB887A6A0C
:1001C00013437B627B6A9AB27B681A827B689B8945
:1001D0009BB27B627B6A23F4B05323F00C037B62F7
:1001E0003B689A883B681B8913439AB23B685B89DA
:1001F00013439BB27A6A13437B627B6A9AB27B6831
:100200009A817B689B8A9BB27B627B6A23F44073F2
:100210007B623B689B897A6A13437B627B6A9AB2F2
:100220007B689A8207F10803184600F035F97A686E
:100230004FF48053C4F201039A4206D07A684FF417
:10024000A053C4F201039A4202D17B693B6201E0F0
:100250003B693B627B689B899BB29BB21BB2002BC4
:100260000FDA3A6A13464FEA83039B184FEA830278
:100270009A183B681B684FEA4303B2FBF3F3FB6138
:100280000EE03A6A13464FEA83039B184FEA830253
:100290009A183B681B684FEA8303B2FBF3F3FB61D8
:1002A000FA6948F21F53C5F2EB13A3FB02134FEA9E
:1002B00053134FEA03137B627B6A4FEA13134FF029
:1002C000640202FB03F3FA69D31ABB617B689B8962
:1002D0009BB29BB21BB2002B12DABB694FEAC3037D
:1002E00003F1320248F21F53C5F2EB13A3FB0213D2
:1002F0004FEA531303F007037A6A13437B6211E05A
:10030000BB694FEA031303F1320248F21F53C5F2EF
:10031000EB13A3FB02134FEA531303F00F037A6AA4
:1003200013437B627B6A9AB27B681A8107F12807C4
:10033000BD4680BD80B483B000AF78600B46FB70D3
:10034000FB78002B08D07B689B899BB243F4005359
:100350009AB27B689A8107E07B689B899BB223F401
:1003600000539AB27B689A8107F10C07BD4680BCA6
:10037000704700BF80B400AF40F21003C2F2000328
:100380001B78002B12D140F21003C2F200034FF091
:1003900064021A704FF44063C4F202034FF44062E7
:1003A000C4F20202526982F480525A61BD4680BC96
:1003B000704700BF80B582B000AF40F6EC73C0F666
:1003C00000037B6040F20003C2F200033B600BE0DD
:1003D0007B681A683B681A603B6803F104033B6062
:1003E0007B6803F104037B603A6840F21003C2F2B9
:1003F00000039A42ECD3074807494FF000028842B5
:10040000B8BF40F8042BFADB00F00CF807F108073E
:10041000BD4680BD100000201400002080B400AF55
:10042000FEE700BF80B500AF00F076FA00F04CFCAC
:1004300000F0F2FB00F0A6FCFFF79CFFFCE700BF1A
:1004400080B500AF40F21003C2F200031B78002B0E
:100450000CD040F21003C2F200031B7803F1FF330B
:10046000DAB240F21003C2F200031A704FF4406394
:10047000C4F202034FF44062C4F20202526982F4F1
:1004800080425A614FF44060C4F200004FF0010115
:1004900000F09AFD80BD00BF80B489B000AF7860E5
:1004A0004FF00003BB614FF000037B614FF000038E
:1004B000FB614FF002033B614FF00003FB604FF024
:1004C0000203BB604FF46053C4F202039B6803F065
:1004D0000C03BB61BB69042B0AD0082B0FD0002B87
:1004E00062D17A684FF41053C0F2F403136062E0F3
:1004F0007A6847F64003C0F27D1313605BE04FF467
:100500006053C4F202035B6803F480034FEA935321
:10051000FB604FF46053C4F202035B6803F03F03D7
:10052000BB60FB68002B15D047F64003C0F27D137B
:10053000BA68B3FBF2F24FF46053C4F202035B6893
:10054000194647F6C0730B404FEA931303FB02F3BF
:10055000FB6114E04FF41053C0F2F403BA68B3FB2C
:10056000F2F24FF46053C4F202035B68194647F697
:10057000C0730B404FEA931303FB02F3FB614FF48C
:100580006053C4F202035B6803F440334FEA134341
:1005900003F101034FEA43033B61FA693B69B2FB94
:1005A000F3F27B681A6006E07A684FF41053C0F2E9
:1005B000F403136000BF4FF46053C4F202039B685E
:1005C00003F0F003BB61BB694FEA1313BB6140F258
:1005D0000003C2F20003BA699B181B78DBB27B618F
:1005E0007B681A687B6922FA03F27B685A604FF4D1
:1005F0006053C4F202039B6803F4E053BB61BB6920
:100600004FEA9323BB6140F20003C2F20003BA69D0
:100610009B181B78DBB27B617B685A687B6922FA86
:1006200003F27B689A604FF46053C4F202039B6844
:1006300003F46043BB61BB694FEA5333BB6140F2D3
:100640000003C2F20003BA699B181B78DBB27B611E
:100650007B685A687B6922FA03F27B68DA6007F1EB
:100660002407BD4680BC704780B483B000AF78607B
:100670000B46FB70FB78002B0DD04FF46053C4F297
:1006800002034FF46052C4F20202126B11467A6800
:100690000A431A630EE04FF46053C4F202034FF4AE
:1006A0006052C4F20202126B11467A686FEA0202CB
:1006B0000A401A6307F10C07BD4680BC704700BFB3
:1006C00080B483B000AF78600B46FB70FB78002BE2
:1006D0000DD04FF46053C4F202034FF46052C4F2E1
:1006E0000202126C11467A680A431A640EE04FF453
:1006F0006053C4F202034FF46052C4F20202126C5F
:1007000011467A686FEA02020A401A6407F10C0780
:10071000BD4680BC704700BF80B487B000AF786032
:1007200039604FF000037B614FF000033B614FF0F5
:100730000003FB604FF000037B618EE07B694FF0AC
:10074000010202FA03F33B613B681A683B691340FC
:10075000FB60FA683B699A427BD17B681B681A464A
:100760007B694FEA43034FF0030101FA03F36FEA99
:1007700003031A407B681A607B681B681A463B6853
:100780001B7919467B694FEA430301FA03F31A43C5
:100790007B681A603B681B79012B03D03B681B798F
:1007A000022B38D17B689B681A467B694FEA43036A
:1007B0004FF0030101FA03F36FEA03031A407B6869
:1007C0009A607B689B681A463B685B7919467B692F
:1007D0004FEA430301FA03F31A437B689A607B688C
:1007E0005B681A467B699BB24FF0010101FA03F383
:1007F0006FEA03031A407B685A607B685B681A469D
:100800003B689B7919467B699BB201FA03F39BB263
:100810001A437B685A607B68DB681A467B699BB227
:100820004FEA43034FF0030101FA03F36FEA0303B6
:100830001A407B68DA607B68DB681A463B68DB79C4
:1008400019467B694FEA430301FA03F31A437B68B5
:10085000DA607B6903F101037B617B690F2B7FF613
:100860006DAF07F11C07BD4680BC704780B485B0F2
:1008700000AF786013460A467A807B704FF0000321
:10088000FB604FF00003BB607A787B8803F00703BE
:100890004FEA830302FA03F3FB607B884FEAD3033A
:1008A0009BB21A467B884FEAD3039BB219467B68FA
:1008B00001F1080153F8213019467B8803F0070342
:1008C0004FEA83034FF00F0000FA03F36FEA0303CC
:1008D00019407B6802F1080243F822107B884FEA36
:1008E000D3039BB21A467B6802F1080253F8223008
:1008F0001A46FB681343BB607B884FEAD3039BB265
:100900001A467B6802F10802B96843F8221007F121
:100910001407BD4680BC704780B500AF4FF46053EC
:10092000C4F202034FF46052C4F20202126842F0B1
:1009300001021A604FF46053C4F202034FF0000248
:100940009A604FF46053C4F202034FF46052C4F251
:100950000202126822F0847222F480321A604FF48C
:100960006053C4F2020343F21002C2F200425A6022
:100970004FF46053C4F202034FF46052C4F2020217
:10098000126822F480221A604FF46053C4F202030A
:100990004FF00002DA6000F009F84FF46D43CEF238
:1009A00000034FF000629A6080BD00BF80B483B046
:1009B00000AF4FF000037B604FF000033B604FF44B
:1009C0006053C4F202034FF46052C4F20202126890
:1009D00042F480321A604FF46053C4F202031B6881
:1009E00003F400333B607B6803F101037B603B68E9
:1009F000002B03D17B68B3F5A06FECD14FF46053AB
:100A0000C4F202031B6803F40033002B03D04FF041
:100A100001033B6002E04FF000033B603B68012BA9
:100A200040F082804FF46053C4F202034FF46052EE
:100A3000C4F20202126C42F080521A644FF4E04396
:100A4000C4F200034FF4E042C4F20002126842F420
:100A500080421A604FF46053C4F202034FF46052B4
:100A6000C4F2020292689A604FF46053C4F2020327
:100A70004FF46052C4F20202926842F400429A605B
:100A80004FF46053C4F202034FF46052C4F2020206
:100A9000926842F4A0529A604FF46053C4F2020389
:100AA00045F20842C0F240725A604FF46053C4F2FB
:100AB00002034FF46052C4F20202126842F08072E4
:100AC0001A6000BF4FF46053C4F202031B6803F0C6
:100AD0000073002BF6D04FF47053C4F2020340F2BF
:100AE00005621A604FF46053C4F202034FF460527F
:100AF000C4F20202926822F003029A604FF460533B
:100B0000C4F202034FF46052C4F20202926842F04F
:100B100002029A6000BF4FF46053C4F202039B6864
:100B200003F00C03082BF6D107F10C07BD4680BC7F
:100B3000704700BF80B485B000AF78604FF000030D
:100B4000FB734FF00003BB734FF00F037B737B68A5
:100B5000DB78002B45D04FF46D43CEF20003DB6809
:100B60006FEA030303F4E0634FEA1323FB73FB7B99
:100B7000C3F10403BB737A7BFB7B42FA03F37B7301
:100B80007B685B781A46BB7B02FA03F3FB737B68D6
:100B90009A787B7B1340DAB2FB7B1343FB73FB7BBE
:100BA0004FEA0313FB734FF46143CEF200037A68FC
:100BB00012789B18FA7B83F800234FF46143CEF23E
:100BC00000037A6812784FEA5212D2B27968097833
:100BD00001F01F014FF0010000FA01F143F822106B
:100BE00014E04FF46143CEF200037A6812784FEAC2
:100BF0005212D2B27968097801F01F014FF001005A
:100C000000FA01F102F1200243F8221007F1140763
:100C1000BD4680BC704700BF80B586B000AF4FF0C6
:100C200008004FF00101FFF71FFD4FF480204FF047
:100C30000101FFF745FD4FF480733B614FF0020364
:100C40003B754FF002037B754FF00003BB754FF00F
:100C50000103FB7507F110034FF44060C4F202007A
:100C60001946FFF759FD4FF44060C4F202004FF0FF
:100C700008014FF00702FFF7F9FD4FF4E1333B6045
:100C80004FF00003BB804FF00003FB804FF00003E8
:100C90003B814FF00003BB814FF008037B813B4653
:100CA0004FF49040C4F200001946FFF76DFA4FF47C
:100CB0009040C4F200004FF00101FFF73BFB07F149
:100CC0001807BD4680BD00BF80B582B000AF4FF0B1
:100CD00008004FF00101FFF7C7FC4FF001004FF093
:100CE0000101FFF7C1FC4FF010004FF00101FFF7C9
:100CF000BBFC4FF470433B604FF001033B714FF07E
:100D00000003BB714FF003037B714FF00003FB71D5
:100D10003B464FF44060C4F202001946FFF7FCFC6A
:100D20004FF003033B604FF000033B714FF00003B3
:100D3000BB714FF003037B714FF00003FB713B4627
:100D40004FF00000C4F202001946FFF7E5FC4FF433
:100D5000F0433B604FF001033B714FF00003BB7168
:100D60004FF003037B714FF00003FB713B464FF4E0
:100D70008050C4F202001946FFF7CEFC07F10807C5
:100D8000BD4680BD80B584B000AF4FF008004FF085
:100D90000101FFF795FC4FF032033B704FF0000369
:100DA0007B704FF00003BB704FF00103FB703B46BC
:100DB0001846FFF7BFFE07F10403184600F0A2F83B
:100DC0004FF05403BB8042F21073BB604FF000033E
:100DD000BB8107F104034FF44060C4F200001946E0
:100DE00000F016F84FF44060C4F200004FF001012B
:100DF00000F0A6F84FF44060C4F200004FF001018B
:100E00004FF0010200F0BCF807F11007BD4680BDAD
:100E100080B485B000AF786039604FF00003FB818B
:100E20007B681B88FB817A684FF00003C4F20103E2
:100E30009A421FD07A684FF48063C4F201039A4249
:100E400018D07B68B3F1804F14D07A684FF4806378
:100E5000C4F200039A420DD07A684FF40063C4F2E2
:100E600000039A4206D07A684FF44063C4F200034C
:100E70009A4208D1FB8923F07003FB813B685A88B2
:100E8000FB891343FB817A684FF48053C4F200035B
:100E90009A420FD07A684FF4A053C4F200039A42EA
:100EA00008D0FB8923F44073FB813B681A89FB89D6
:100EB0001343FB817B68FA891A803B685A687B6818
:100EC000DA623B681A887B681A857A684FF00003FB
:100ED000C4F201039A4206D07A684FF48063C4F2E8
:100EE00001039A4204D13B689B7A1A467B681A86B2
:100EF0007B684FF001029A8207F11407BD4680BC5F
:100F0000704700BF80B483B000AF78607B684FF05B
:100F1000FF325A607B684FF000021A807B684FF006
:100F200000021A817B684FF000025A807B684FF004
:100F300000029A7207F10C07BD4680BC704700BFE3
:100F400080B483B000AF78600B46FB70FB78002B59
:100F500008D07B681B889BB243F001039AB27B6880
:100F60001A8007E07B681B889BB223F001039AB2CA
:100F70007B681A8007F10C07BD4680BC704700BF34
:100F800080B483B000AF786013460A467A807B70E5
:100F90007B78002B08D07B689B899AB27B881343AF
:100FA0009AB27B689A810AE07B689B899AB27B88B7
:100FB0006FEA03039BB213409AB27B689A8107F1F0
:100FC0000C07BD4680BC704780B483B000AF78602A
:100FD0000B467B807B886FEA03039AB27B681A8298
:0C0FE00007F10C07BD4680BC704700BF45
:100FEC0000000000010203040102030406070809C3
:0400000508000000EF
:00000001FF
